{
  "contractName": "SponsorWhitelistControl",
  "abi": [
    {
      "inputs": [
        {
          "internalType": "address",
          "name": "contract_addr",
          "type": "address"
        },
        {
          "internalType": "uint256",
          "name": "upper_bound",
          "type": "uint256"
        }
      ],
      "name": "set_sponsor_for_gas",
      "outputs": [],
      "stateMutability": "payable",
      "type": "function"
    },
    {
      "inputs": [
        {
          "internalType": "address",
          "name": "contract_addr",
          "type": "address"
        }
      ],
      "name": "set_sponsor_for_collateral",
      "outputs": [],
      "stateMutability": "payable",
      "type": "function"
    },
    {
      "inputs": [
        {
          "internalType": "address[]",
          "name": "",
          "type": "address[]"
        }
      ],
      "name": "add_privilege",
      "outputs": [],
      "stateMutability": "nonpayable",
      "type": "function"
    },
    {
      "inputs": [
        {
          "internalType": "address[]",
          "name": "",
          "type": "address[]"
        }
      ],
      "name": "remove_privilege",
      "outputs": [],
      "stateMutability": "nonpayable",
      "type": "function"
    }
  ],
  "bytecode": "0x608060405234801561001057600080fd5b50610185806100206000396000f3fe60806040526004361061003f5760003560e01c80630862bf681461004457806344c0bd211461006c578063e9ac3d4a1461011c578063fe15156c1461006c575b600080fd5b61006a6004803603602081101561005a57600080fd5b50356001600160a01b0316610148565b005b34801561007857600080fd5b5061006a6004803603602081101561008f57600080fd5b8101906020810181356401000000008111156100aa57600080fd5b8201836020820111156100bc57600080fd5b803590602001918460208302840111640100000000831117156100de57600080fd5b919080806020026020016040519081016040528093929190818152602001838360200280828437600092019190915250929550610148945050505050565b61006a6004803603604081101561013257600080fd5b506001600160a01b03813516906020013561014b565b50565b505056fea264697066735822122087d71239f594655ea662a80ff972ac1950f376cc200129b7125992f407623cf064736f6c63430006060033",
  "immutableReferences": {},
  "source": "pragma solidity >=0.4.15;\r\n\r\ncontract SponsorWhitelistControl {\r\n    // ------------------------------------------------------------------------\r\n    // Someone will sponsor the gas cost for contract `contract_addr` with an\r\n    // `upper_bound` for a single transaction.\r\n    // ------------------------------------------------------------------------\r\n    function set_sponsor_for_gas(address contract_addr, uint upper_bound) public payable {\r\n    }\r\n\r\n    // ------------------------------------------------------------------------\r\n    // Someone will sponsor the storage collateral for contract `contract_addr`.\r\n    // ------------------------------------------------------------------------\r\n    function set_sponsor_for_collateral(address contract_addr) public payable {\r\n    }\r\n\r\n    // ------------------------------------------------------------------------\r\n    // Add commission privilege for address `user` to some contract.\r\n    // ------------------------------------------------------------------------\r\n    function add_privilege(address[] memory) public {\r\n    }\r\n\r\n    // ------------------------------------------------------------------------\r\n    // Remove commission privilege for address `user` from some contract.\r\n    // ------------------------------------------------------------------------\r\n    function remove_privilege(address[] memory) public {\r\n    }\r\n}",
  "sourcePath": "/c/Users/Lee/Conflux Studio/Router/contracts/SponsorWhitelistControl.sol",
  "compiler": {
    "name": "solc",
    "version": "0.6.6+commit.6c089d02.Emscripten.clang"
  },
  "schemaVersion": "3.2.0",
  "updatedAt": "2020-12-09T01:07:52.856Z",
  "devdoc": {
    "methods": {}
  },
  "userdoc": {
    "methods": {}
  }
}